{
  "contractName": "ContentValidation",
  "abi": [
    {
      "constant": false,
      "inputs": [
        {
          "name": "contentName",
          "type": "string"
        },
        {
          "name": "holder",
          "type": "address"
        }
      ],
      "name": "verify_name",
      "outputs": [
        {
          "name": "success",
          "type": "bool"
        }
      ],
      "payable": false,
      "stateMutability": "nonpayable",
      "type": "function"
    },
    {
      "constant": false,
      "inputs": [
        {
          "name": "contentName",
          "type": "string"
        },
        {
          "name": "producer",
          "type": "address"
        }
      ],
      "name": "registerAllowedProviders",
      "outputs": [
        {
          "name": "success",
          "type": "bool"
        }
      ],
      "payable": false,
      "stateMutability": "nonpayable",
      "type": "function"
    },
    {
      "constant": false,
      "inputs": [
        {
          "name": "contentName",
          "type": "string"
        },
        {
          "name": "contentOwner",
          "type": "address"
        }
      ],
      "name": "registerContent",
      "outputs": [
        {
          "name": "success",
          "type": "bool"
        }
      ],
      "payable": false,
      "stateMutability": "nonpayable",
      "type": "function"
    },
    {
      "constant": true,
      "inputs": [],
      "name": "getBadNodes",
      "outputs": [
        {
          "name": "",
          "type": "address[]"
        }
      ],
      "payable": false,
      "stateMutability": "view",
      "type": "function"
    },
    {
      "constant": true,
      "inputs": [],
      "name": "getGoodNodes",
      "outputs": [
        {
          "name": "",
          "type": "address[]"
        }
      ],
      "payable": false,
      "stateMutability": "view",
      "type": "function"
    },
    {
      "constant": true,
      "inputs": [],
      "name": "myFunction",
      "outputs": [
        {
          "name": "myNumber",
          "type": "uint256"
        }
      ],
      "payable": false,
      "stateMutability": "view",
      "type": "function"
    }
  ],
  "bytecode": "0x608060405234801561001057600080fd5b50610d31806100206000396000f300608060405260043610610078576000357c0100000000000000000000000000000000000000000000000000000000900463ffffffff16806301538b821461007d5780631228dad21461011e57806346d73164146101bf5780634a6fe5511461026057806380564149146102cc578063c3780a3a14610338575b600080fd5b34801561008957600080fd5b50610104600480360381019080803590602001908201803590602001908080601f0160208091040260200160405190810160405280939291908181526020018383808284378201915050505050509192919290803573ffffffffffffffffffffffffffffffffffffffff169060200190929190505050610363565b604051808215151515815260200191505060405180910390f35b34801561012a57600080fd5b506101a5600480360381019080803590602001908201803590602001908080601f0160208091040260200160405190810160405280939291908181526020018383808284378201915050505050509192919290803573ffffffffffffffffffffffffffffffffffffffff169060200190929190505050610698565b604051808215151515815260200191505060405180910390f35b3480156101cb57600080fd5b50610246600480360381019080803590602001908201803590602001908080601f0160208091040260200160405190810160405280939291908181526020018383808284378201915050505050509192919290803573ffffffffffffffffffffffffffffffffffffffff16906020019092919050505061091d565b604051808215151515815260200191505060405180910390f35b34801561026c57600080fd5b50610275610b3a565b6040518080602001828103825283818151815260200191508051906020019060200280838360005b838110156102b857808201518184015260208101905061029d565b505050509050019250505060405180910390f35b3480156102d857600080fd5b506102e1610bc8565b6040518080602001828103825283818151815260200191508051906020019060200280838360005b83811015610324578082015181840152602081019050610309565b505050509050019250505060405180910390f35b34801561034457600080fd5b5061034d610c56565b6040518082815260200191505060405180910390f35b6000803390506000845111151561037957600080fd5b6000845111801561040357506003846040518082805190602001908083835b6020831015156103bd5780518252602082019150602081019050602083039250610398565b6001836020036101000a038019825116818451168082178552505050505050905001915050908152602001604051809103902060020160149054906101000a900460ff16155b1561068c57836003856040518082805190602001908083835b602083101515610441578051825260208201915060208101905060208303925061041c565b6001836020036101000a0380198251168184511680821785525050505050509050019150509081526020016040518091039020600001908051906020019061048a929190610c60565b5060016003856040518082805190602001908083835b6020831015156104c557805182526020820191506020810190506020830392506104a0565b6001836020036101000a038019825116818451168082178552505050505050905001915050908152602001604051809103902060010160008373ffffffffffffffffffffffffffffffffffffffff1673ffffffffffffffffffffffffffffffffffffffff16815260200190815260200160002060006101000a81548160ff021916908315150217905550826003856040518082805190602001908083835b6020831015156105885780518252602082019150602081019050602083039250610563565b6001836020036101000a038019825116818451168082178552505050505050905001915050908152602001604051809103902060020160006101000a81548173ffffffffffffffffffffffffffffffffffffffff021916908373ffffffffffffffffffffffffffffffffffffffff16021790555060016003856040518082805190602001908083835b6020831015156106365780518252602082019150602081019050602083039250610611565b6001836020036101000a038019825116818451168082178552505050505050905001915050908152602001604051809103902060020160146101000a81548160ff02191690831515021790555060019150610691565b600091505b5092915050565b60006003836040518082805190602001908083835b6020831015156106d257805182526020820191506020810190506020830392506106ad565b6001836020036101000a038019825116818451168082178552505050505050905001915050908152602001604051809103902060020160149054906101000a900460ff16151561072157600080fd5b8173ffffffffffffffffffffffffffffffffffffffff166003846040518082805190602001908083835b602083101515610770578051825260208201915060208101905060208303925061074b565b6001836020036101000a038019825116818451168082178552505050505050905001915050908152602001604051809103902060020160009054906101000a900473ffffffffffffffffffffffffffffffffffffffff1673ffffffffffffffffffffffffffffffffffffffff16148061089e57506003836040518082805190602001908083835b60208310151561081c57805182526020820191506020810190506020830392506107f7565b6001836020036101000a038019825116818451168082178552505050505050905001915050908152602001604051809103902060010160008373ffffffffffffffffffffffffffffffffffffffff1673ffffffffffffffffffffffffffffffffffffffff16815260200190815260200160002060009054906101000a900460ff165b156108ac5760019050610917565b60028290806001815401808255809150509060018203906000526020600020016000909192909190916101000a81548173ffffffffffffffffffffffffffffffffffffffff021916908373ffffffffffffffffffffffffffffffffffffffff16021790555050600090505b92915050565b60006003836040518082805190602001908083835b6020831015156109575780518252602082019150602081019050602083039250610932565b6001836020036101000a038019825116818451168082178552505050505050905001915050908152602001604051809103902060020160149054906101000a900460ff168015610a5d57506003836040518082805190602001908083835b6020831015156109da57805182526020820191506020810190506020830392506109b5565b6001836020036101000a038019825116818451168082178552505050505050905001915050908152602001604051809103902060010160008373ffffffffffffffffffffffffffffffffffffffff1673ffffffffffffffffffffffffffffffffffffffff16815260200190815260200160002060009054906101000a900460ff16155b15610b2f5760016003846040518082805190602001908083835b602083101515610a9c5780518252602082019150602081019050602083039250610a77565b6001836020036101000a038019825116818451168082178552505050505050905001915050908152602001604051809103902060010160008473ffffffffffffffffffffffffffffffffffffffff1673ffffffffffffffffffffffffffffffffffffffff16815260200190815260200160002060006101000a81548160ff02191690831515021790555060019050610b34565b600090505b92915050565b60606002805480602002602001604051908101604052809291908181526020018280548015610bbe57602002820191906000526020600020905b8160009054906101000a900473ffffffffffffffffffffffffffffffffffffffff1673ffffffffffffffffffffffffffffffffffffffff1681526020019060010190808311610b74575b5050505050905090565b60606001805480602002602001604051908101604052809291908181526020018280548015610c4c57602002820191906000526020600020905b8160009054906101000a900473ffffffffffffffffffffffffffffffffffffffff1673ffffffffffffffffffffffffffffffffffffffff1681526020019060010190808311610c02575b5050505050905090565b60006107cf905090565b828054600181600116156101000203166002900490600052602060002090601f016020900481019282601f10610ca157805160ff1916838001178555610ccf565b82800160010185558215610ccf579182015b82811115610cce578251825591602001919060010190610cb3565b5b509050610cdc9190610ce0565b5090565b610d0291905b80821115610cfe576000816000905550600101610ce6565b5090565b905600a165627a7a72305820980b652c82ed9bb93529a1a2e5c6d0137dc20479b6ffc74ddab4c1d9eb9d21cf0029",
  "source": "pragma solidity ^0.4.23;\n\n// A example of reliable math library\nlibrary Math{\n  function sum(uint a, uint b) public returns (uint256){\n    return a+b;\n  }\n}\n\ncontract ContentValidation {\n\n  address admin;\n  address[] private good_nodes;\n  address[] private bad_nodes;\n\n  mapping (string => Provider) private registeredContents;\n\n  struct Provider{\n    string name;\n    mapping (address => bool) allowed_producers;\n    address contentOwner;\n    bool exists;\n  }\n\n  // constructor () {admin = msg.sender; }\n  // Here the node ask for a producer name Validation on blockchain\n  // But if the clients were the bad guys?\n  function verify_name(string contentName, address holder) public returns (bool success){\n    require(registeredContents[contentName].exists);\n    if (registeredContents[contentName].contentOwner == holder ||\n      registeredContents[contentName].allowed_producers[holder]){\n        return true;\n      }else{\n        bad_nodes.push(holder);\n        return false;\n      }\n    }\n\n    // modifier onlyOwner {\n    //     require(\n    //         msg.sender == owner,\n    //         \"Only owner can call this function.\"\n    //     );\n    //     _;\n    // }\n\n    function registerAllowedProviders(string contentName, address producer) public returns (bool success){\n      // Comment to perform tests\n      // require(msg.sender == registeredContents[contentName].contentOwner);\n\n      if (registeredContents[contentName].exists &&\n        !registeredContents[contentName].allowed_producers[producer]){\n          registeredContents[contentName].allowed_producers[producer] = true;\n          return true;\n        }else{\n          return false;\n        }\n      }\n\n      function registerContent (string contentName, address contentOwner) public returns (bool success){\n        address senderAddress = msg.sender;\n        require(bytes(contentName).length > 0);\n        if (bytes(contentName).length > 0 && !registeredContents[contentName].exists){\n          registeredContents[contentName].name = contentName;\n          registeredContents[contentName].allowed_producers[senderAddress] = true;\n          registeredContents[contentName].contentOwner = contentOwner;\n          registeredContents[contentName].exists = true;\n          // Is not necessary to keep the good_nodes\n          // good_nodes.push(senderAddress);\n          return true;\n        }else{\n          return false;\n        }\n      }\n\n      function getBadNodes() public view returns (address[]) {\n        return bad_nodes;\n      }\n\n      function getGoodNodes() public view returns (address[]){\n        return good_nodes;\n      }\n\n      // Just a debug function\n      function myFunction() public view returns(uint256 myNumber) {\n        return (1999);\n      }\n    }\n",
  "sourcePath": "/home/mateus/truffle-examples/ndn-content-validation/contracts/Name-Validation.sol",
  "compiler": {
    "name": "solc",
    "version": "0.4.24+commit.e67f0147.Emscripten.clang"
  },
  "schemaVersion": "2.0.1",
  "updatedAt": "2018-09-12T16:42:12.706Z"
}