{
  "contractName": "ContentValidation",
  "abi": [
    {
      "constant": false,
      "inputs": [
        {
          "name": "contentName",
          "type": "string"
        },
        {
          "name": "holder",
          "type": "address"
        }
      ],
      "name": "verify_name",
      "outputs": [
        {
          "name": "success",
          "type": "bool"
        }
      ],
      "payable": false,
      "stateMutability": "nonpayable",
      "type": "function"
    },
    {
      "constant": false,
      "inputs": [
        {
          "name": "contentName",
          "type": "string"
        },
        {
          "name": "producer",
          "type": "address"
        }
      ],
      "name": "registerAllowedProviders",
      "outputs": [
        {
          "name": "success",
          "type": "bool"
        }
      ],
      "payable": false,
      "stateMutability": "nonpayable",
      "type": "function"
    },
    {
      "constant": false,
      "inputs": [
        {
          "name": "contentName",
          "type": "string"
        },
        {
          "name": "contentOwner",
          "type": "address"
        }
      ],
      "name": "registerContent",
      "outputs": [
        {
          "name": "success",
          "type": "bool"
        }
      ],
      "payable": false,
      "stateMutability": "nonpayable",
      "type": "function"
    },
    {
      "constant": true,
      "inputs": [
        {
          "name": "contentName",
          "type": "string"
        }
      ],
      "name": "checkContentStatus",
      "outputs": [
        {
          "name": "exists",
          "type": "bool"
        }
      ],
      "payable": false,
      "stateMutability": "view",
      "type": "function"
    },
    {
      "constant": true,
      "inputs": [],
      "name": "getBadNodes",
      "outputs": [
        {
          "name": "",
          "type": "address[]"
        }
      ],
      "payable": false,
      "stateMutability": "view",
      "type": "function"
    },
    {
      "constant": true,
      "inputs": [],
      "name": "getGoodNodes",
      "outputs": [
        {
          "name": "",
          "type": "address[]"
        }
      ],
      "payable": false,
      "stateMutability": "view",
      "type": "function"
    },
    {
      "constant": true,
      "inputs": [],
      "name": "myFunction",
      "outputs": [
        {
          "name": "myNumber",
          "type": "uint256"
        }
      ],
      "payable": false,
      "stateMutability": "view",
      "type": "function"
    }
  ],
  "bytecode": "0x608060405234801561001057600080fd5b50610f1b806100206000396000f300608060405260043610610083576000357c0100000000000000000000000000000000000000000000000000000000900463ffffffff16806301538b82146100885780631228dad21461012957806346d73164146101ca5780634a6fe5511461026b57806380564149146102d7578063afef6eae14610343578063c3780a3a146103c4575b600080fd5b34801561009457600080fd5b5061010f600480360381019080803590602001908201803590602001908080601f0160208091040260200160405190810160405280939291908181526020018383808284378201915050505050509192919290803573ffffffffffffffffffffffffffffffffffffffff1690602001909291905050506103ef565b604051808215151515815260200191505060405180910390f35b34801561013557600080fd5b506101b0600480360381019080803590602001908201803590602001908080601f0160208091040260200160405190810160405280939291908181526020018383808284378201915050505050509192919290803573ffffffffffffffffffffffffffffffffffffffff169060200190929190505050610724565b604051808215151515815260200191505060405180910390f35b3480156101d657600080fd5b50610251600480360381019080803590602001908201803590602001908080601f0160208091040260200160405190810160405280939291908181526020018383808284378201915050505050509192919290803573ffffffffffffffffffffffffffffffffffffffff1690602001909291905050506109a9565b604051808215151515815260200191505060405180910390f35b34801561027757600080fd5b50610280610c8e565b6040518080602001828103825283818151815260200191508051906020019060200280838360005b838110156102c35780820151818401526020810190506102a8565b505050509050019250505060405180910390f35b3480156102e357600080fd5b506102ec610d1c565b6040518080602001828103825283818151815260200191508051906020019060200280838360005b8381101561032f578082015181840152602081019050610314565b505050509050019250505060405180910390f35b34801561034f57600080fd5b506103aa600480360381019080803590602001908201803590602001908080601f0160208091040260200160405190810160405280939291908181526020018383808284378201915050505050509192919290505050610daa565b604051808215151515815260200191505060405180910390f35b3480156103d057600080fd5b506103d9610e40565b6040518082815260200191505060405180910390f35b6000803390506000845111151561040557600080fd5b6000845111801561048f57506003846040518082805190602001908083835b6020831015156104495780518252602082019150602081019050602083039250610424565b6001836020036101000a038019825116818451168082178552505050505050905001915050908152602001604051809103902060020160149054906101000a900460ff16155b1561071857836003856040518082805190602001908083835b6020831015156104cd57805182526020820191506020810190506020830392506104a8565b6001836020036101000a03801982511681845116808217855250505050505090500191505090815260200160405180910390206000019080519060200190610516929190610e4a565b5060016003856040518082805190602001908083835b602083101515610551578051825260208201915060208101905060208303925061052c565b6001836020036101000a038019825116818451168082178552505050505050905001915050908152602001604051809103902060010160008373ffffffffffffffffffffffffffffffffffffffff1673ffffffffffffffffffffffffffffffffffffffff16815260200190815260200160002060006101000a81548160ff021916908315150217905550826003856040518082805190602001908083835b60208310151561061457805182526020820191506020810190506020830392506105ef565b6001836020036101000a038019825116818451168082178552505050505050905001915050908152602001604051809103902060020160006101000a81548173ffffffffffffffffffffffffffffffffffffffff021916908373ffffffffffffffffffffffffffffffffffffffff16021790555060016003856040518082805190602001908083835b6020831015156106c2578051825260208201915060208101905060208303925061069d565b6001836020036101000a038019825116818451168082178552505050505050905001915050908152602001604051809103902060020160146101000a81548160ff0219169083151502179055506001915061071d565b600091505b5092915050565b60006003836040518082805190602001908083835b60208310151561075e5780518252602082019150602081019050602083039250610739565b6001836020036101000a038019825116818451168082178552505050505050905001915050908152602001604051809103902060020160149054906101000a900460ff1615156107ad57600080fd5b8173ffffffffffffffffffffffffffffffffffffffff166003846040518082805190602001908083835b6020831015156107fc57805182526020820191506020810190506020830392506107d7565b6001836020036101000a038019825116818451168082178552505050505050905001915050908152602001604051809103902060020160009054906101000a900473ffffffffffffffffffffffffffffffffffffffff1673ffffffffffffffffffffffffffffffffffffffff16148061092a57506003836040518082805190602001908083835b6020831015156108a85780518252602082019150602081019050602083039250610883565b6001836020036101000a038019825116818451168082178552505050505050905001915050908152602001604051809103902060010160008373ffffffffffffffffffffffffffffffffffffffff1673ffffffffffffffffffffffffffffffffffffffff16815260200190815260200160002060009054906101000a900460ff165b1561093857600190506109a3565b60028290806001815401808255809150509060018203906000526020600020016000909192909190916101000a81548173ffffffffffffffffffffffffffffffffffffffff021916908373ffffffffffffffffffffffffffffffffffffffff16021790555050600090505b92915050565b60006003836040518082805190602001908083835b6020831015156109e357805182526020820191506020810190506020830392506109be565b6001836020036101000a038019825116818451168082178552505050505050905001915050908152602001604051809103902060020160009054906101000a900473ffffffffffffffffffffffffffffffffffffffff1673ffffffffffffffffffffffffffffffffffffffff163373ffffffffffffffffffffffffffffffffffffffff16141515610a7357600080fd5b6003836040518082805190602001908083835b602083101515610aab5780518252602082019150602081019050602083039250610a86565b6001836020036101000a038019825116818451168082178552505050505050905001915050908152602001604051809103902060020160149054906101000a900460ff168015610bb157506003836040518082805190602001908083835b602083101515610b2e5780518252602082019150602081019050602083039250610b09565b6001836020036101000a038019825116818451168082178552505050505050905001915050908152602001604051809103902060010160008373ffffffffffffffffffffffffffffffffffffffff1673ffffffffffffffffffffffffffffffffffffffff16815260200190815260200160002060009054906101000a900460ff16155b15610c835760016003846040518082805190602001908083835b602083101515610bf05780518252602082019150602081019050602083039250610bcb565b6001836020036101000a038019825116818451168082178552505050505050905001915050908152602001604051809103902060010160008473ffffffffffffffffffffffffffffffffffffffff1673ffffffffffffffffffffffffffffffffffffffff16815260200190815260200160002060006101000a81548160ff02191690831515021790555060019050610c88565b600090505b92915050565b60606002805480602002602001604051908101604052809291908181526020018280548015610d1257602002820191906000526020600020905b8160009054906101000a900473ffffffffffffffffffffffffffffffffffffffff1673ffffffffffffffffffffffffffffffffffffffff1681526020019060010190808311610cc8575b5050505050905090565b60606001805480602002602001604051908101604052809291908181526020018280548015610da057602002820191906000526020600020905b8160009054906101000a900473ffffffffffffffffffffffffffffffffffffffff1673ffffffffffffffffffffffffffffffffffffffff1681526020019060010190808311610d56575b5050505050905090565b60006003826040518082805190602001908083835b602083101515610de45780518252602082019150602081019050602083039250610dbf565b6001836020036101000a038019825116818451168082178552505050505050905001915050908152602001604051809103902060020160149054906101000a900460ff1615610e365760019050610e3b565b600090505b919050565b60006107cf905090565b828054600181600116156101000203166002900490600052602060002090601f016020900481019282601f10610e8b57805160ff1916838001178555610eb9565b82800160010185558215610eb9579182015b82811115610eb8578251825591602001919060010190610e9d565b5b509050610ec69190610eca565b5090565b610eec91905b80821115610ee8576000816000905550600101610ed0565b5090565b905600a165627a7a72305820b86a4e37c37564e440f21653998be2d2ae1ff7365b6708be7a3bb6f7a6158a490029",
  "source": "pragma solidity ^0.4.23;\n\n// A example of reliable math library\nlibrary Math{\n  function sum(uint a, uint b) public returns (uint256){\n    return a+b;\n  }\n}\n\ncontract ContentValidation {\n\n  address admin;\n  address[] private good_nodes;\n  address[] private bad_nodes;\n\n  mapping (string => Provider) private registeredContents;\n\n  struct Provider{\n    string name;\n    mapping (address => bool) allowed_producers;\n    address contentOwner;\n    bool exists;\n  }\n\n  // constructor () {admin = msg.sender; }\n  // Here the node ask for a producer name Validation on blockchain\n  // But if the clients were the bad guys?\n  function verify_name(string contentName, address holder) public returns (bool success){\n    require(registeredContents[contentName].exists);\n    if (registeredContents[contentName].contentOwner == holder ||\n      registeredContents[contentName].allowed_producers[holder]){\n        return true;\n      }else{\n        bad_nodes.push(holder);\n        return false;\n      }\n    }\n\n    // modifier onlyOwner {\n    //     require(\n    //         msg.sender == owner,\n    //         \"Only owner can call this function.\"\n    //     );\n    //     _;\n    // }\n\n    function registerAllowedProviders(string contentName, address producer) public returns (bool success){\n        require(msg.sender == registeredContents[contentName].contentOwner);\n\n        if (registeredContents[contentName].exists &&\n            !registeredContents[contentName].allowed_producers[producer]){\n                registeredContents[contentName].allowed_producers[producer] = true;\n                return true;\n            }else{\n                return false;\n            }\n    }\n\n    function registerContent (string contentName, address contentOwner) public returns (bool success){\n      address senderAddress = msg.sender;\n      require(bytes(contentName).length > 0);\n      if (bytes(contentName).length > 0 && !registeredContents[contentName].exists){\n        registeredContents[contentName].name = contentName;\n        registeredContents[contentName].allowed_producers[senderAddress] = true;\n        registeredContents[contentName].contentOwner = contentOwner;\n        registeredContents[contentName].exists = true;\n        // Is not necessary to keep the good_nodes\n        // good_nodes.push(senderAddress);\n        return true;\n      }else{\n        return false;\n      }\n    }\n\n    function checkContentStatus(string contentName) public view returns (bool exists){\n        if (registeredContents[contentName].exists){\n          return true;\n        }else{\n          return false;\n        }\n    }\n\n    function getBadNodes() public view returns (address[]) {\n      return bad_nodes;\n    }\n\n    function getGoodNodes() public view returns (address[]){\n      return good_nodes;\n    }\n\n    // Just a debug function\n    function myFunction() public view returns(uint256 myNumber) {\n      return (1999);\n    }\n  }\n",
  "sourcePath": "/home/mateus/truffle-examples/ndn-content-validation/contracts/Name-Validation.sol",
  "compiler": {
    "name": "solc",
    "version": "0.4.24+commit.e67f0147.Emscripten.clang"
  },
  "schemaVersion": "2.0.1",
  "updatedAt": "2018-09-12T20:02:06.517Z"
}