{
  "contractName": "Math",
  "abi": [
    {
      "constant": false,
      "inputs": [
        {
          "name": "a",
          "type": "uint256"
        },
        {
          "name": "b",
          "type": "uint256"
        }
      ],
      "name": "sum",
      "outputs": [
        {
          "name": "",
          "type": "uint256"
        }
      ],
      "payable": false,
      "stateMutability": "nonpayable",
      "type": "function"
    }
  ],
  "bytecode": "0x60dc61002f600b82828239805160001a6073146000811461001f57610021565bfe5b5030600052607381538281f30073000000000000000000000000000000000000000030146080604052600436106056576000357c0100000000000000000000000000000000000000000000000000000000900463ffffffff168063cad0899b14605b575b600080fd5b818015606657600080fd5b50608d600480360381019080803590602001909291908035906020019092919050505060a3565b6040518082815260200191505060405180910390f35b60008183019050929150505600a165627a7a723058205a1a06e80ead1772a1611f05758133e76aff926a452d218e6bcd4247fa702ae30029",
  "source": "pragma solidity ^0.4.23;\n\n// A example of reliable math library\nlibrary Math{\n  function sum(uint a, uint b) public returns (uint256){\n    return a+b;\n  }\n}\n\ncontract ContentValidation {\n\n  address admin;\n  address[] private good_nodes;\n  address[] private bad_nodes;\n\n  mapping (string => Provider) private registeredContents;\n\n  struct Provider{\n    string name;\n    mapping (address => bool) allowed_producers;\n    address contentOwner;\n    bool exists;\n  }\n\n  // constructor () {admin = msg.sender; }\n  // Here the node ask for a producer name Validation on blockchain\n  // But if the clients were the bad guys?\n  function verifyContent(string contentName, address holder) public returns (bool success){\n    require(registeredContents[contentName].exists);\n    if (registeredContents[contentName].contentOwner == holder ||\n      registeredContents[contentName].allowed_producers[holder]){\n        return true;\n      }else{\n        bad_nodes.push(holder);\n        return false;\n      }\n    }\n\n    // modifier onlyOwner {\n    //     require(\n    //         msg.sender == owner,\n    //         \"Only owner can call this function.\"\n    //     );\n    //     _;\n    // }\n\n    function registerAllowedProviders(string contentName, address producer) public returns (bool success){\n        // Comment the line bellow for run tests with different address\n        // require(msg.sender == registeredContents[contentName].contentOwner);\n\n        if (registeredContents[contentName].exists &&\n            !registeredContents[contentName].allowed_producers[producer]){\n                registeredContents[contentName].allowed_producers[producer] = true;\n                return true;\n            }else{\n                return false;\n            }\n    }\n\n    function registerContent (string contentName, address contentOwner) public returns (bool success){\n      address senderAddress = msg.sender;\n      require(bytes(contentName).length > 0);\n      if (bytes(contentName).length > 0 && !registeredContents[contentName].exists){\n        registeredContents[contentName].name = contentName;\n        registeredContents[contentName].allowed_producers[senderAddress] = true;\n        registeredContents[contentName].contentOwner = contentOwner;\n        registeredContents[contentName].exists = true;\n        // Is not necessary to keep the good_nodes\n        // good_nodes.push(senderAddress);\n        return true;\n      }else{\n        return false;\n      }\n    }\n\n    function checkContentStatus(string contentName) public view returns (bool exists){\n        if (registeredContents[contentName].exists){\n          return true;\n        }else{\n          return false;\n        }\n    }\n\n    function getBadNodes() public view returns (address[]) {\n      return bad_nodes;\n    }\n\n    function getGoodNodes() public view returns (address[]){\n      return good_nodes;\n    }\n\n    // Just a debug function\n    function myFunction() public view returns(uint256 myNumber) {\n      return (1999);\n    }\n  }\n",
  "sourcePath": "/home/mateus/truffle-examples/ndn-content-validation/contracts/Name-Validation.sol",
  "compiler": {
    "name": "solc",
    "version": "0.4.24+commit.e67f0147.Emscripten.clang"
  },
  "schemaVersion": "2.0.1",
  "updatedAt": "2018-09-13T01:30:26.438Z"
}